:020000040800F2
:1000000000280020F1010008410200084102000818
:1000100041020008410200084102000800000000FF
:100020000000000000000000000000004102000885
:1000300041020008000000004102000841020008DF
:100040004102000841020008410200084102000884
:100050004102000841020008410200084102000874
:100060004102000841020008410200084102000864
:100070004102000841020008410200084102000854
:100080004102000841020008410200084102000844
:100090004102000841020008410200084102000834
:1000A0004102000841020008410200084102000824
:1000B0004102000841020008410200084102000814
:1000C0004102000841020008410200084102000804
:1000D00041020008410200084102000841020008F4
:1000E000410200084102000800000000410200082F
:1000F00041020008410200084102000841020008D4
:1001000041020008410200084102000841020008C3
:1001100041020008410200084102000841020008B3
:1001200041020008410200084102000841020008A3
:1001300010B5054C237833B9044B13B10448AFF321
:1001400000800123237010BD00000020000000008B
:100150008C02000808B5034B1BB103490348AFF3F9
:10016000008008BD00000000040000208C02000890
:1001700080B485B000AF1B4B1B687B601A4B1B68BB
:10018000194A43F004031360184B1B68174A23F401
:1001900070031360154B1B68144A43F4001313607B
:1001A0007A68138843F4005313800023FB6002E055
:1001B000FB680133FB60FB6842F20F729342F7DD8C
:1001C0007A6813886FF34D3313800023BB6002E01D
:1001D000BB680133BB60BB6842F20F729342F7DD2C
:1001E000DEE700BF0C08014018100240040801407F
:1001F0000D488546AFF300800C480D490D4A002399
:1002000002E0D458C4500433C4188C42F9D30A4ACB
:100210000A4C002301E013600432A242FBD300F039
:1002200011F8FFF7A5FFFEE70028002000000020DE
:1002300000000020AC020008000000201C0000208C
:10024000FEE7000070B500250C4E0D4CA41BA41059
:10025000A54209D100F01AF800250A4E0A4CA41B49
:10026000A410A54205D170BD56F825309847013538
:10027000EEE756F8253098470135F2E7A40200086A
:10028000A4020008A4020008A8020008F8B500BFF4
:10029000F8BC08BC9E467047F8B500BFF8BC08BC67
:0402A0009E467047BF
:0402A40055010008F8
:0402A8003101000818
:04000005080001F1FD
:00000001FF
